{
  "_format": "hh-sol-artifact-1",
  "contractName": "ProxyRegistry",
  "sourceName": "contracts/TInyWindegTurtlez.sol",
  "abi": [
    {
      "inputs": [
        {
          "internalType": "address",
          "name": "",
          "type": "address"
        }
      ],
      "name": "proxies",
      "outputs": [
        {
          "internalType": "contract OwnableDelegateProxy",
          "name": "",
          "type": "address"
        }
      ],
      "stateMutability": "view",
      "type": "function"
    }
  ],
  "bytecode": "0x608060405234801561001057600080fd5b5061012d806100206000396000f3fe6080604052348015600f57600080fd5b506004361060285760003560e01c8063c455279114602d575b600080fd5b605360383660046097565b6000602081905290815260409020546001600160a01b031681565b604051605e919060eb565b60405180910390f35b60006001600160a01b0382165b92915050565b6081816067565b8114608b57600080fd5b50565b8035607481607a565b60006020828403121560aa5760aa600080fd5b600060b48484608e565b949350505050565b60006001600160a01b0382166074565b600060748260bc565b600060748260cc565b60e58160d5565b82525050565b602081016074828460de56fea2646970667358221220e78ee2b071db36807321c24643fb77b32a2aa3dd7affe42e97d8c6ff220b8d3664736f6c63430008090033",
  "linkReferences": {},
  "deployedLinkReferences": {}
}