{
  "_format": "hh-sol-artifact-1",
  "contractName": "TinyWingedTurtlez",
  "sourceName": "contracts/TInyWindegTurtlez.sol",
  "abi": [
    {
      "inputs": [
        {
          "internalType": "address",
          "name": "_proxyRegistryAddress",
          "type": "address"
        }
      ],
      "stateMutability": "nonpayable",
      "type": "constructor"
    },
    {
      "anonymous": false,
      "inputs": [
        {
          "indexed": true,
          "internalType": "address",
          "name": "owner",
          "type": "address"
        },
        {
          "indexed": true,
          "internalType": "address",
          "name": "approved",
          "type": "address"
        },
        {
          "indexed": true,
          "internalType": "uint256",
          "name": "tokenId",
          "type": "uint256"
        }
      ],
      "name": "Approval",
      "type": "event"
    },
    {
      "anonymous": false,
      "inputs": [
        {
          "indexed": true,
          "internalType": "address",
          "name": "owner",
          "type": "address"
        },
        {
          "indexed": true,
          "internalType": "address",
          "name": "operator",
          "type": "address"
        },
        {
          "indexed": false,
          "internalType": "bool",
          "name": "approved",
          "type": "bool"
        }
      ],
      "name": "ApprovalForAll",
      "type": "event"
    },
    {
      "anonymous": false,
      "inputs": [
        {
          "indexed": true,
          "internalType": "address",
          "name": "previousOwner",
          "type": "address"
        },
        {
          "indexed": true,
          "internalType": "address",
          "name": "newOwner",
          "type": "address"
        }
      ],
      "name": "OwnershipTransferred",
      "type": "event"
    },
    {
      "anonymous": false,
      "inputs": [
        {
          "indexed": true,
          "internalType": "address",
          "name": "from",
          "type": "address"
        },
        {
          "indexed": true,
          "internalType": "address",
          "name": "to",
          "type": "address"
        },
        {
          "indexed": true,
          "internalType": "uint256",
          "name": "tokenId",
          "type": "uint256"
        }
      ],
      "name": "Transfer",
      "type": "event"
    },
    {
      "inputs": [
        {
          "internalType": "address",
          "name": "to",
          "type": "address"
        },
        {
          "internalType": "uint256",
          "name": "tokenId",
          "type": "uint256"
        }
      ],
      "name": "approve",
      "outputs": [],
      "stateMutability": "nonpayable",
      "type": "function"
    },
    {
      "inputs": [
        {
          "internalType": "address",
          "name": "owner",
          "type": "address"
        }
      ],
      "name": "balanceOf",
      "outputs": [
        {
          "internalType": "uint256",
          "name": "",
          "type": "uint256"
        }
      ],
      "stateMutability": "view",
      "type": "function"
    },
    {
      "inputs": [
        {
          "internalType": "uint256",
          "name": "numberOfTokens",
          "type": "uint256"
        }
      ],
      "name": "claim",
      "outputs": [],
      "stateMutability": "nonpayable",
      "type": "function"
    },
    {
      "inputs": [],
      "name": "claimActive",
      "outputs": [
        {
          "internalType": "bool",
          "name": "",
          "type": "bool"
        }
      ],
      "stateMutability": "view",
      "type": "function"
    },
    {
      "inputs": [
        {
          "internalType": "uint256",
          "name": "tokenId",
          "type": "uint256"
        }
      ],
      "name": "createTokenIdTurtle",
      "outputs": [
        {
          "components": [
            {
              "internalType": "uint16",
              "name": "backgroundColor",
              "type": "uint16"
            },
            {
              "internalType": "uint16",
              "name": "wingColor",
              "type": "uint16"
            },
            {
              "internalType": "uint16",
              "name": "wingType",
              "type": "uint16"
            },
            {
              "internalType": "bool",
              "name": "bandana",
              "type": "bool"
            },
            {
              "internalType": "uint16",
              "name": "bandanaColor",
              "type": "uint16"
            },
            {
              "internalType": "bool",
              "name": "boots",
              "type": "bool"
            },
            {
              "internalType": "uint16",
              "name": "bootsColor",
              "type": "uint16"
            },
            {
              "internalType": "uint16",
              "name": "pupil",
              "type": "uint16"
            },
            {
              "internalType": "bool",
              "name": "tongue",
              "type": "bool"
            },
            {
              "internalType": "bool",
              "name": "tail",
              "type": "bool"
            },
            {
              "internalType": "uint16",
              "name": "turtleType",
              "type": "uint16"
            }
          ],
          "internalType": "struct TinyWingedTurtlez.Turtle",
          "name": "",
          "type": "tuple"
        }
      ],
      "stateMutability": "view",
      "type": "function"
    },
    {
      "inputs": [],
      "name": "freeTurtlez",
      "outputs": [
        {
          "internalType": "uint256",
          "name": "",
          "type": "uint256"
        }
      ],
      "stateMutability": "view",
      "type": "function"
    },
    {
      "inputs": [
        {
          "internalType": "uint256",
          "name": "tokenId",
          "type": "uint256"
        }
      ],
      "name": "getApproved",
      "outputs": [
        {
          "internalType": "address",
          "name": "",
          "type": "address"
        }
      ],
      "stateMutability": "view",
      "type": "function"
    },
    {
      "inputs": [
        {
          "components": [
            {
              "internalType": "uint16",
              "name": "backgroundColor",
              "type": "uint16"
            },
            {
              "internalType": "uint16",
              "name": "wingColor",
              "type": "uint16"
            },
            {
              "internalType": "uint16",
              "name": "wingType",
              "type": "uint16"
            },
            {
              "internalType": "bool",
              "name": "bandana",
              "type": "bool"
            },
            {
              "internalType": "uint16",
              "name": "bandanaColor",
              "type": "uint16"
            },
            {
              "internalType": "bool",
              "name": "boots",
              "type": "bool"
            },
            {
              "internalType": "uint16",
              "name": "bootsColor",
              "type": "uint16"
            },
            {
              "internalType": "uint16",
              "name": "pupil",
              "type": "uint16"
            },
            {
              "internalType": "bool",
              "name": "tongue",
              "type": "bool"
            },
            {
              "internalType": "bool",
              "name": "tail",
              "type": "bool"
            },
            {
              "internalType": "uint16",
              "name": "turtleType",
              "type": "uint16"
            }
          ],
          "internalType": "struct TinyWingedTurtlez.Turtle",
          "name": "turtle",
          "type": "tuple"
        }
      ],
      "name": "getTokenIdTurtleMetadata",
      "outputs": [
        {
          "internalType": "string",
          "name": "metadata",
          "type": "string"
        }
      ],
      "stateMutability": "view",
      "type": "function"
    },
    {
      "inputs": [
        {
          "components": [
            {
              "internalType": "uint16",
              "name": "backgroundColor",
              "type": "uint16"
            },
            {
              "internalType": "uint16",
              "name": "wingColor",
              "type": "uint16"
            },
            {
              "internalType": "uint16",
              "name": "wingType",
              "type": "uint16"
            },
            {
              "internalType": "bool",
              "name": "bandana",
              "type": "bool"
            },
            {
              "internalType": "uint16",
              "name": "bandanaColor",
              "type": "uint16"
            },
            {
              "internalType": "bool",
              "name": "boots",
              "type": "bool"
            },
            {
              "internalType": "uint16",
              "name": "bootsColor",
              "type": "uint16"
            },
            {
              "internalType": "uint16",
              "name": "pupil",
              "type": "uint16"
            },
            {
              "internalType": "bool",
              "name": "tongue",
              "type": "bool"
            },
            {
              "internalType": "bool",
              "name": "tail",
              "type": "bool"
            },
            {
              "internalType": "uint16",
              "name": "turtleType",
              "type": "uint16"
            }
          ],
          "internalType": "struct TinyWingedTurtlez.Turtle",
          "name": "turtle",
          "type": "tuple"
        }
      ],
      "name": "getTokenIdTurtleSvg",
      "outputs": [
        {
          "internalType": "string",
          "name": "svg",
          "type": "string"
        }
      ],
      "stateMutability": "view",
      "type": "function"
    },
    {
      "inputs": [
        {
          "internalType": "address",
          "name": "owner",
          "type": "address"
        },
        {
          "internalType": "address",
          "name": "operator",
          "type": "address"
        }
      ],
      "name": "isApprovedForAll",
      "outputs": [
        {
          "internalType": "bool",
          "name": "",
          "type": "bool"
        }
      ],
      "stateMutability": "view",
      "type": "function"
    },
    {
      "inputs": [],
      "name": "maxSupply",
      "outputs": [
        {
          "internalType": "uint256",
          "name": "",
          "type": "uint256"
        }
      ],
      "stateMutability": "view",
      "type": "function"
    },
    {
      "inputs": [
        {
          "internalType": "uint256",
          "name": "numberOfTokens",
          "type": "uint256"
        }
      ],
      "name": "mint",
      "outputs": [],
      "stateMutability": "payable",
      "type": "function"
    },
    {
      "inputs": [],
      "name": "mintActive",
      "outputs": [
        {
          "internalType": "bool",
          "name": "",
          "type": "bool"
        }
      ],
      "stateMutability": "view",
      "type": "function"
    },
    {
      "inputs": [],
      "name": "name",
      "outputs": [
        {
          "internalType": "string",
          "name": "",
          "type": "string"
        }
      ],
      "stateMutability": "view",
      "type": "function"
    },
    {
      "inputs": [],
      "name": "openSeaProxyActive",
      "outputs": [
        {
          "internalType": "bool",
          "name": "",
          "type": "bool"
        }
      ],
      "stateMutability": "view",
      "type": "function"
    },
    {
      "inputs": [],
      "name": "owner",
      "outputs": [
        {
          "internalType": "address",
          "name": "",
          "type": "address"
        }
      ],
      "stateMutability": "view",
      "type": "function"
    },
    {
      "inputs": [
        {
          "internalType": "uint256",
          "name": "numberOfTokens",
          "type": "uint256"
        }
      ],
      "name": "ownerClaim",
      "outputs": [],
      "stateMutability": "nonpayable",
      "type": "function"
    },
    {
      "inputs": [
        {
          "internalType": "uint256",
          "name": "tokenId",
          "type": "uint256"
        }
      ],
      "name": "ownerOf",
      "outputs": [
        {
          "internalType": "address",
          "name": "",
          "type": "address"
        }
      ],
      "stateMutability": "view",
      "type": "function"
    },
    {
      "inputs": [],
      "name": "proxyRegistryAddress",
      "outputs": [
        {
          "internalType": "address",
          "name": "",
          "type": "address"
        }
      ],
      "stateMutability": "view",
      "type": "function"
    },
    {
      "inputs": [
        {
          "internalType": "address",
          "name": "",
          "type": "address"
        }
      ],
      "name": "proxyToApproved",
      "outputs": [
        {
          "internalType": "bool",
          "name": "",
          "type": "bool"
        }
      ],
      "stateMutability": "view",
      "type": "function"
    },
    {
      "inputs": [],
      "name": "reduceSupply",
      "outputs": [],
      "stateMutability": "nonpayable",
      "type": "function"
    },
    {
      "inputs": [],
      "name": "renounceOwnership",
      "outputs": [],
      "stateMutability": "nonpayable",
      "type": "function"
    },
    {
      "inputs": [
        {
          "internalType": "address",
          "name": "from",
          "type": "address"
        },
        {
          "internalType": "address",
          "name": "to",
          "type": "address"
        },
        {
          "internalType": "uint256",
          "name": "tokenId",
          "type": "uint256"
        }
      ],
      "name": "safeTransferFrom",
      "outputs": [],
      "stateMutability": "nonpayable",
      "type": "function"
    },
    {
      "inputs": [
        {
          "internalType": "address",
          "name": "from",
          "type": "address"
        },
        {
          "internalType": "address",
          "name": "to",
          "type": "address"
        },
        {
          "internalType": "uint256",
          "name": "tokenId",
          "type": "uint256"
        },
        {
          "internalType": "bytes",
          "name": "_data",
          "type": "bytes"
        }
      ],
      "name": "safeTransferFrom",
      "outputs": [],
      "stateMutability": "nonpayable",
      "type": "function"
    },
    {
      "inputs": [
        {
          "internalType": "address",
          "name": "operator",
          "type": "address"
        },
        {
          "internalType": "bool",
          "name": "approved",
          "type": "bool"
        }
      ],
      "name": "setApprovalForAll",
      "outputs": [],
      "stateMutability": "nonpayable",
      "type": "function"
    },
    {
      "inputs": [
        {
          "internalType": "uint256",
          "name": "newFreeTurtlez",
          "type": "uint256"
        }
      ],
      "name": "setFreeTurtlez",
      "outputs": [],
      "stateMutability": "nonpayable",
      "type": "function"
    },
    {
      "inputs": [
        {
          "internalType": "uint256",
          "name": "newTurtlePrice",
          "type": "uint256"
        }
      ],
      "name": "setTurtlePrice",
      "outputs": [],
      "stateMutability": "nonpayable",
      "type": "function"
    },
    {
      "inputs": [
        {
          "internalType": "bytes4",
          "name": "interfaceId",
          "type": "bytes4"
        }
      ],
      "name": "supportsInterface",
      "outputs": [
        {
          "internalType": "bool",
          "name": "",
          "type": "bool"
        }
      ],
      "stateMutability": "view",
      "type": "function"
    },
    {
      "inputs": [],
      "name": "symbol",
      "outputs": [
        {
          "internalType": "string",
          "name": "",
          "type": "string"
        }
      ],
      "stateMutability": "view",
      "type": "function"
    },
    {
      "inputs": [],
      "name": "toggleClaim",
      "outputs": [],
      "stateMutability": "nonpayable",
      "type": "function"
    },
    {
      "inputs": [],
      "name": "toggleMint",
      "outputs": [],
      "stateMutability": "nonpayable",
      "type": "function"
    },
    {
      "inputs": [],
      "name": "toggleOpenSeaProxy",
      "outputs": [],
      "stateMutability": "nonpayable",
      "type": "function"
    },
    {
      "inputs": [
        {
          "internalType": "address",
          "name": "proxyAddress",
          "type": "address"
        }
      ],
      "name": "toggleProxy",
      "outputs": [],
      "stateMutability": "nonpayable",
      "type": "function"
    },
    {
      "inputs": [
        {
          "internalType": "uint256",
          "name": "tokenId",
          "type": "uint256"
        }
      ],
      "name": "tokenURI",
      "outputs": [
        {
          "internalType": "string",
          "name": "",
          "type": "string"
        }
      ],
      "stateMutability": "view",
      "type": "function"
    },
    {
      "inputs": [],
      "name": "totalSupply",
      "outputs": [
        {
          "internalType": "uint256",
          "name": "",
          "type": "uint256"
        }
      ],
      "stateMutability": "view",
      "type": "function"
    },
    {
      "inputs": [
        {
          "internalType": "address",
          "name": "from",
          "type": "address"
        },
        {
          "internalType": "address",
          "name": "to",
          "type": "address"
        },
        {
          "internalType": "uint256",
          "name": "tokenId",
          "type": "uint256"
        }
      ],
      "name": "transferFrom",
      "outputs": [],
      "stateMutability": "nonpayable",
      "type": "function"
    },
    {
      "inputs": [
        {
          "internalType": "address",
          "name": "newOwner",
          "type": "address"
        }
      ],
      "name": "transferOwnership",
      "outputs": [],
      "stateMutability": "nonpayable",
      "type": "function"
    },
    {
      "inputs": [],
      "name": "turtlePrice",
      "outputs": [
        {
          "internalType": "uint256",
          "name": "",
          "type": "uint256"
        }
      ],
      "stateMutability": "view",
      "type": "function"
    },
    {
      "inputs": [],
      "name": "withdraw",
      "outputs": [],
      "stateMutability": "nonpayable",
      "type": "function"
    }
  ],
  "bytecode": "0x6103e8600890815561138860095566470de4df820000600a55600b805461ffff191661010117905560076101a0818152662932b3bab630b960c91b6101c05260a090815260046101e0818152634c6f6e6760e01b6102005260c0526102208181526315185b1b60e21b6102405260e0526005610260908152645370696b7960d81b61028052610100526102a083815266149d59999b195960ca1b6102c05261012052600e6102e09081526d4c6f6f736520466561746865727360901b610300526101405261032092835266537061726b6c7960c81b61034052610160929092526103a060405261036091825263436c617760e01b61038052610180919091526200010d91601a91906200184a565b506040805160c08101825260076080820181815266135a5b99199d5b60ca1b60a0840152825282518084018452600880825267506f73697469766560c01b60208381019190915280850192909252845180860186529081526714995cd95c9d995960c21b8183015283850152835180850190945290835266119bd8dd5cd95960ca1b908301526060810191909152620001ab90601b906004620018ae565b50348015620001b957600080fd5b506040516200627338038062006273833981016040819052620001dc9162001ae7565b604080518082018252601381527f54696e792057696e67656420547572746c657a000000000000000000000000006020808301918252835180850190945260038452621515d560ea1b9084015281519192916200023c9160009162001900565b5080516200025290600190602084019062001900565b5050506200026f62000269620013c360201b60201c565b620013c7565b6200028660076200141960201b620015fa1760201c565b60408051610100810182526104e081526103da602082015261034a918101919091526102d46060820152610239608082015261017360a082015260d160c0820152603360e0820152620002de90601c9060086200198b565b5060408051608081018252610c8081526104b060208201526101f491810191909152606460608201526200031790601d9060046200198b565b50604080518082019091526106568152610d3260208201526200033f90601e9060026200198b565b50604080518082019091526106338152610d5560208201526200036790601f9060026200198b565b5060408051808201909152610dfb815261058d602080830191909152620003909160026200198b565b50604080516080810182526112908152608d6020820152604f91810191909152601c6060820152620003c79060219060046200198b565b506001600160a01b0381166080908152604080516101808101825260076101408201818152662362636466623960c81b61016084015261010083019081528351808501855260058082526423b932b2b760d91b60208381019190915261012086019290925291845284518087018652808601848152662364356261646160c81b60608381019190915290825286518088018852600680825265507572706c6560d01b828601528385019190915283870192909252865180890188528088018681526611b2b1b198b23160c91b8284015281528751808901895260048082526350696e6b60e01b8287015282860191909152878901919091528751808a018952808901878152662365336332396560c81b8285015281528851808a018a52848152654f72616e676560d01b8187015281860152828801528751808a018952808901878152662339636437643560c81b8285015281528851808a018a52600981526854757271756f69736560b81b8187015281860152878a01528751808a018952808901878152662366616631383560c81b8285015281528851808a018a529384526559656c6c6f7760d01b848601528085019390935260a0870192909252865180890188528088018681526608d88c190e598d60ca1b8284015281528751808901895292835263426c756560e01b838501528084019290925260c086019190915285519687018652868601938452662333333333333360c81b908701529185528351808501909452835264426c61636b60d81b8382015283019190915260e0810191909152620006169062001422565b6040805161012081018252600760e08201818152662363353230333560c81b61010084015260a0830190815283518085018552600381526214995960ea1b60208281019190915260c08501919091529083528351608080820186528186018481526608cd8dcd0e0e5960ca1b60608481019190915290835286518088018852600680825265507572706c6560d01b82870152848601919091528487019390935286518083018852808801868152662331343735626360c81b82840152815287518089018952600480825263426c756560e01b82880152828701919091528789019190915287518084018952808901878152662363633539323760c81b8285015281528851808a018a52948552654f72616e676560d01b85870152808601949094528187019390935286518083018852808801958652662365333163373960c81b9181019190915293845285518087019096529085526350696e6b60e01b8583015290820193909352918101919091526200079090620014bd565b6040805161010081018252600760c082018181526611b3333333333360c91b60e08401526080808401918252845180860186526005815264576869746560d81b60208281019190915260a0860191909152918452845180820186528086018481526611b0b31c321a9b60c91b6060838101919091529082528651808801885260068082526542726f6e7a6560d01b828701528386019190915284870192909252865180840188528088018681526611b0b330b330b360c91b828401528152875180890189529283526529b4b63b32b960d11b838601528085019290925285870191909152855191820186528186019384526608d90d18598ccd60ca1b828201529281528451808601909552600485526311dbdb1960e21b8583015290810193909352810191909152620008c39062001554565b62000a146040518060800160405280604051806040016040528060405180604001604052806002815260200161189b60f11b815250815260200160405180604001604052806002815260200161031360f41b8152508152508152602001604051806040016040528060405180604001604052806002815260200161313760f01b815250815260200160405180604001604052806002815260200161031360f41b8152508152508152602001604051806040016040528060405180604001604052806002815260200161189b60f11b815250815260200160405180604001604052806002815260200161313160f01b8152508152508152602001604051806040016040528060405180604001604052806002815260200161313760f01b815250815260200160405180604001604052806002815260200161313160f01b815250815250815250620015eb60201b60201c565b6040805160e081018252600160a08201818152600360fc1b60c084018190526060808501928352855180870187528481526020818101849052608080880192909252938652865180820188528088018681528184018590528152875180890189528681528086018590528186015284870152865190810187528087018581529181018390529081528551808701875293845283830191909152908101919091529181019190915262000ac99060009062001682565b6040805160e081018252600160a08201818152603360f81b60c0840152606080840191825284518086018652838152600760fb1b602082810182905260808088019390935293865286518083018852808801868152600d60fa1b82860152815287518089018952868152808601839052818601528487015286519182018752818701858152603560f81b938301939093529181528551808701875284815280840192909252918201529282019290925262000b85919062001682565b6040805160e081018252600160a08201818152603560f81b60c08401819052606080850192835285518087018752848152600760fb1b60208281019190915260808088019290925293865286518082018852808801868152818401859052815287518089018952868152603760f81b8187015281860152848701528651908101875280870185815291810192909252815284518086018652928352601b60f91b83830152908101919091529181019190915262000c459060029062001682565b6040805160e081018252600160a08201818152600d60fa1b60c0840152606080840191825284518086018652838152603760f81b602082810182905260808088019390935293865286518083018852808801868152601b60f91b82860152815287518089018952868152808601839052818601528487015286519182018752818701858152600760fb1b938301939093529181528551808701875293845283830191909152908101919091529181019190915262000d069060039062001682565b6040805160e081018252600160a08201818152601b60f91b60c08401819052606080850192835285518087018752848152603760f81b602082810182905260808089019390935294875287518083018952808901878152603960f81b8286015281528851808a018a5287815280870192909252808601919091528487015286519081018752600281880190815261031360f41b928201929092529081528551808701875293845283830191909152908101919091529181019190915262000dd09060049062001682565b6040805160e081018252600160a08201908152600760fb1b60c0830152606080830191825283518085018552600280825261189960f11b60208381018290526080808801949094529486528651808401885280880183815261031360f41b828701528152875180890189528381528087018390528187015285870152865192830187528287018281529383018190529282528551808701875290815280840192909252918201529181019190915262000e8c9060059062001682565b6040805160e081018252600160a08201818152600d60fa1b60c0840152606080840191825284518086018652838152601b60f91b60208281019190915260808087019290925292855285518082018752808701858152601960f91b82850152815286518088018852858152603760f81b81860152818501528386015285519081018652808601848152603360f81b9282019290925290815284518086018652928352600760fb1b83830152908101919091529181019190915262000f539060069062001682565b6040805160e081018252600160a08201818152600d60fa1b60c0840152606080840191825284518086018652838152603960f81b60208281019190915260808087019290925292855285518082018752808701858152603360f81b82850152815286518088018852600280825261031360f41b828701819052838701929092528588019290925287519283018852828801958652603560f81b9383019390935293815285518087018752938452838301919091529081019190915291810191909152620010239060079062001682565b620013bc60405180608001604052806040518060c0016040528060405180604001604052806006815260200165139bdc9b585b60d21b8152508152602001604051806040016040528060078152602001660466c6ac4c668760cb1b8152508152602001604051806040016040528060078152602001662335363765333960c81b8152508152602001604051806040016040528060078152602001660233030303030360cc1b8152508152602001604051806040016040528060018152602001603760f81b815250815260200160405180604001604052806002815260200161189960f11b81525081525081526020016040518060c00160405280604051806040016040528060068152602001655a6f6d62696560d01b815250815260200160405180604001604052806007815260200166119bb2b0991b3160c91b8152508152602001604051806040016040528060078152602001662334633631343160c81b8152508152602001604051806040016040528060078152602001662366663030303560c81b815250815260200160405180604001604052806002815260200161313760f01b815250815260200160405180604001604052806002815260200161313360f01b81525081525081526020016040518060c0016040528060405180604001604052806005815260200164111c9bda5960da1b81525081526020016040518060400160405280600781526020016608d90d18598ccd60ca1b81525081526020016040518060400160405280600781526020016608d84c0dd94c9960ca1b8152508152602001604051806040016040528060078152602001662334643333313160c81b815250815260200160405180604001604052806002815260200161189b60f11b8152508152602001604051806040016040528060018152602001603760f81b81525081525081526020016040518060c001604052806040518060400160405280600581526020016420b634b2b760d91b8152508152602001604051806040016040528060078152602001660233863623062360cc1b8152508152602001604051806040016040528060078152602001660466a6e707070760cb1b8152508152602001604051806040016040528060078152602001662330323732383760c81b815250815260200160405180604001604052806002815260200161189b60f11b815250815260200160405180604001604052806002815260200161189960f11b8152508152508152506200173b60201b60201c565b5062001baa565b3390565b600680546001600160a01b038381166001600160a01b0319831681179093556040519116919082907f8be0079c531659141344cd1fd0a4f28419497f9722a3daafe3b4186f6b6457e090600090a35050565b80546001019055565b60005b60088160ff161015620014b957600d828260ff16600881106200144c576200144c62001b14565b60209081029190910151825460018101845560009384529282902081518051929460020290910192620014859284929091019062001900565b506020828101518051620014a0926001850192019062001900565b5050508080620014b09062001b40565b91505062001425565b5050565b60005b60058160ff161015620014b957600e828260ff1660058110620014e757620014e762001b14565b60209081029190910151825460018101845560009384529282902081518051929460020290910192620015209284929091019062001900565b5060208281015180516200153b926001850192019062001900565b50505080806200154b9062001b40565b915050620014c0565b60005b60048160ff161015620014b957600f828260ff16600481106200157e576200157e62001b14565b60209081029190910151825460018101845560009384529282902081518051929460020290910192620015b79284929091019062001900565b506020828101518051620015d2926001850192019062001900565b5050508080620015e29062001b40565b91505062001557565b60005b60048160ff161015620014b9576010828260ff166004811062001615576200161562001b14565b602090810291909101518254600181018455600093845292829020815180519294600202909101926200164e9284929091019062001900565b50602082810151805162001669926001850192019062001900565b5050508080620016799062001b40565b915050620015ee565b60005b60038160ff161015620017365760118365ffffffffffff1660088110620016b057620016b062001b14565b01828260ff1660038110620016c957620016c962001b14565b60209081029190910151825460018101845560009384529282902081518051929460020290910192620017029284929091019062001900565b5060208281015180516200171d926001850192019062001900565b50505080806200172d9062001b40565b91505062001685565b505050565b60005b60048160ff161015620014b9576019828260ff166004811062001765576200176562001b14565b602090810291909101518254600181018455600093845292829020815180519294600602909101926200179e9284929091019062001900565b506020828101518051620017b9926001850192019062001900565b5060408201518051620017d791600284019160209091019062001900565b5060608201518051620017f591600384019160209091019062001900565b50608082015180516200181391600484019160209091019062001900565b5060a082015180516200183191600584019160209091019062001900565b5050508080620018419062001b40565b9150506200173e565b8280548282559060005260206000209081019282156200189c579160200282015b828111156200189c57825180516200188b91849160209091019062001900565b50916020019190600101906200186b565b50620018aa92915062001a36565b5090565b8280548282559060005260206000209081019282156200189c579160200282015b828111156200189c5782518051620018ef91849160209091019062001900565b5091602001919060010190620018cf565b8280546200190e9062001b79565b90600052602060002090601f0160209004810192826200193257600085556200197d565b82601f106200194d57805160ff19168380011785556200197d565b828001600101855582156200197d579182015b828111156200197d57825182559160200191906001019062001960565b50620018aa92915062001a57565b82805482825590600052602060002090600f016010900481019282156200197d5791602002820160005b83821115620019f757835183826101000a81548161ffff021916908361ffff1602179055509260200192600201602081600101049283019260010302620019b5565b801562001a275782816101000a81549061ffff0219169055600201602081600101049283019260010302620019f7565b5050620018aa92915062001a57565b80821115620018aa57600062001a4d828262001a6e565b5060010162001a36565b5b80821115620018aa576000815560010162001a58565b50805462001a7c9062001b79565b6000825580601f1062001a8d575050565b601f01602090049060005260206000209081019062001aad919062001a57565b50565b60006001600160a01b0382165b92915050565b62001ace8162001ab0565b811462001aad57600080fd5b805162001abd8162001ac3565b60006020828403121562001afe5762001afe600080fd5b600062001b0c848462001ada565b949350505050565b634e487b7160e01b600052603260045260246000fd5b634e487b7160e01b600052601160045260246000fd5b600060ff8216915060ff82141562001b5c5762001b5c62001b2a565b5060010190565b634e487b7160e01b600052602260045260246000fd5b60028104600182168062001b8e57607f821691505b6020821081141562001ba45762001ba462001b63565b50919050565b6080516146a662001bcd600039600081816105a1015261144101526146a66000f3fe6080604052600436106102305760003560e01c80638e6a1d671161012e578063d1129745116100ab578063d7aa75da1161006f578063d7aa75da14610653578063e104f60c14610673578063e985e9c514610688578063f29ffdc3146106a8578063f2fde38b146106c857600080fd5b8063d1129745146105d9578063d3dd5fe0146105ee578063d4a6a2fd14610603578063d5abeb011461061d578063d7188a701461063357600080fd5b8063ac631b6d116100f2578063ac631b6d1461053a578063b88d4fde1461054f578063c87b56dd1461056f578063cd7c03261461058f578063cfb6b6fc146105c357600080fd5b80638e6a1d67146104ac57806395d89b41146104c25780639dc38c7d146104d7578063a0712d6814610507578063a22cb4651461051a57600080fd5b80633ccfd60b116101bc5780636352211e116101805780636352211e1461041957806370a0823114610439578063715018a6146104595780637cd2c64e1461046e5780638da5cb5b1461048e57600080fd5b80633ccfd60b1461037757806342842e0e1461038c578063434f48c4146103ac578063456e2603146103cc5780635cd7a7b2146103ec57600080fd5b806318160ddd1161020357806318160ddd146102dc5780631fd60fd8146102fe57806323b872dd1461031857806325fd90f314610338578063379607f51461035757600080fd5b806301ffc9a71461023557806306fdde031461026b578063081812fc1461028d578063095ea7b3146102ba575b600080fd5b34801561024157600080fd5b506102556102503660046127c3565b6106e8565b60405161026291906127ee565b60405180910390f35b34801561027757600080fd5b5061028061073a565b604051610262919061285a565b34801561029957600080fd5b506102ad6102a8366004612883565b6107cc565b60405161026291906128be565b3480156102c657600080fd5b506102da6102d53660046128e0565b610825565b005b3480156102e857600080fd5b506102f16108ab565b6040516102629190612923565b34801561030a57600080fd5b506022546102559060ff1681565b34801561032457600080fd5b506102da610333366004612931565b6108c7565b34801561034457600080fd5b50600b5461025590610100900460ff1681565b34801561036357600080fd5b506102da610372366004612883565b6108f8565b34801561038357600080fd5b506102da61095a565b34801561039857600080fd5b506102da6103a7366004612931565b6109bd565b3480156103b857600080fd5b506102da6103c7366004612883565b6109d8565b3480156103d857600080fd5b506102806103e7366004612b09565b610a02565b3480156103f857600080fd5b5061040c610407366004612883565b610c84565b6040516102629190612c0b565b34801561042557600080fd5b506102ad610434366004612883565b610e9a565b34801561044557600080fd5b506102f1610454366004612c1a565b610ecf565b34801561046557600080fd5b506102da610f13565b34801561047a57600080fd5b506102da610489366004612883565b610f49565b34801561049a57600080fd5b506006546001600160a01b03166102ad565b3480156104b857600080fd5b506102f160085481565b3480156104ce57600080fd5b50610280610f9a565b3480156104e357600080fd5b506102556104f2366004612c1a565b60236020526000908152604090205460ff1681565b6102da610515366004612883565b610fa9565b34801561052657600080fd5b506102da610535366004612c3b565b610ffc565b34801561054657600080fd5b506102da61100b565b34801561055b57600080fd5b506102da61056a366004612d0a565b611049565b34801561057b57600080fd5b5061028061058a366004612883565b611081565b34801561059b57600080fd5b506102ad7f000000000000000000000000000000000000000000000000000000000000000081565b3480156105cf57600080fd5b506102f1600a5481565b3480156105e557600080fd5b506102da6111e6565b3480156105fa57600080fd5b506102da611224565b34801561060f57600080fd5b50600b546102559060ff1681565b34801561062957600080fd5b506102f160095481565b34801561063f57600080fd5b5061028061064e366004612b09565b61126b565b34801561065f57600080fd5b506102da61066e366004612883565b6113a1565b34801561067f57600080fd5b506102da6113d0565b34801561069457600080fd5b506102556106a3366004612d89565b61142f565b3480156106b457600080fd5b506102da6106c3366004612c1a565b61154e565b3480156106d457600080fd5b506102da6106e3366004612c1a565b6115a1565b60006001600160e01b031982166380ac58cd60e01b148061071957506001600160e01b03198216635b5e139f60e01b145b8061073457506301ffc9a760e01b6001600160e01b03198316145b92915050565b60606000805461074990612dd2565b80601f016020809104026020016040519081016040528092919081815260200182805461077590612dd2565b80156107c25780601f10610797576101008083540402835291602001916107c2565b820191906000526020600020905b8154815290600101906020018083116107a557829003601f168201915b5050505050905090565b6000818152600260205260408120546001600160a01b03166108095760405162461bcd60e51b815260040161080090612e45565b60405180910390fd5b506000908152600460205260409020546001600160a01b031690565b600061083082610e9a565b9050806001600160a01b0316836001600160a01b031614156108645760405162461bcd60e51b815260040161080090612e93565b336001600160a01b03821614806108805750610880813361142f565b61089c5760405162461bcd60e51b815260040161080090612efd565b6108a68383611603565b505050565b600060016108b860075490565b6108c29190612f23565b905090565b6108d13382611671565b6108ed5760405162461bcd60e51b815260040161080090612f88565b6108a68383836116fb565b600b5460ff1661091a5760405162461bcd60e51b815260040161080090612fcf565b600854816109266108ab565b6109309190612fdf565b111561094e5760405162461bcd60e51b815260040161080090613023565b6109578161181d565b50565b6006546001600160a01b031633146109845760405162461bcd60e51b815260040161080090613065565b6006546040516001600160a01b03909116904780156108fc02916000818181858888f19350505050158015610957573d6000803e3d6000fd5b6108a683838360405180602001604052806000815250611049565b6006546001600160a01b0316331461094e5760405162461bcd60e51b815260040161080090613065565b606080600d836000015161ffff1681548110610a2057610a20613075565b9060005260206000209060020201600101601984610140015161ffff1681548110610a4d57610a4d613075565b9060005260206000209060060201600001601a856040015161ffff1681548110610a7957610a79613075565b90600052602060002001600f866020015161ffff1681548110610a9e57610a9e613075565b9060005260206000209060020201600101601b8760e0015161ffff1681548110610aca57610aca613075565b90600052602060002001604051602001610ae99695949392919061320f565b60405160208183030381529060405290508160a0015115610b545780600e8360c0015161ffff1681548110610b2057610b20613075565b9060005260206000209060020201600101604051602001610b429291906132d5565b60405160208183030381529060405290505b81606001518015610b6f575081610140015161ffff16600214155b15610bc45780600e836080015161ffff1681548110610b9057610b90613075565b9060005260206000209060020201600101604051602001610bb2929190613334565b60405160208183030381529060405290505b8161010001518015610be0575081610140015161ffff16600114155b15610c085780604051602001610bf6919061337a565b60405160208183030381529060405290505b81610120015115610c3a5780604051602001610c2491906133c5565b6040516020818303038152906040529050610c5d565b80604051602001610c4b9190613448565b60405160208183030381529060405290505b80604051602001610c6e919061347e565b6040516020818303038152906040529050919050565b6040805161016081018252600080825260208201819052918101829052606081018290526080810182905260a0810182905260c0810182905260e0810182905261010081018290526101208101829052610140810182905290610ce8600143612f23565b4083604051602001610cfb9291906134a0565b60408051601f1981840301815282825280516020909101206101608301909152915080610d296008846134dc565b61ffff168152602001610d52600954600285901c61ffff16610d4b91906134ff565b6001611a6b565b61ffff168152602001610d7b600954600185901c61ffff16610d7491906134ff565b6000611a6b565b61ffff168152602001610da4600954600385901c61ffff16610d9d91906134ff565b6002611a6b565b61ffff166001148152602001610dbf6005600485901c6134dc565b61ffff168152602001610de8600954600585901c61ffff16610de191906134ff565b6003611a6b565b61ffff166001148152602001610e036005600685901c6134dc565b61ffff168152602001610e1b6004600785901c6134dc565b61ffff168152602001610e44600954600885901c61ffff16610e3d91906134ff565b6004611a6b565b61ffff166001148152602001610e5f6002600985901c6134dc565b61ffff1660011415158152602001610e8d600954600a85901c61ffff16610e8691906134ff565b6005611a6b565b61ffff1690529392505050565b6000818152600260205260408120546001600160a01b0316806107345760405162461bcd60e51b81526004016108009061354d565b60006001600160a01b038216610ef75760405162461bcd60e51b8152600401610800906135a4565b506001600160a01b031660009081526003602052604090205490565b6006546001600160a01b03163314610f3d5760405162461bcd60e51b815260040161080090613065565b610f476000611b45565b565b6006546001600160a01b03163314610f735760405162461bcd60e51b815260040161080090613065565b600954811115610f955760405162461bcd60e51b8152600401610800906135e8565b600855565b60606001805461074990612dd2565b600b54610100900460ff16610fd05760405162461bcd60e51b815260040161080090613623565b600a54610fdd9082613633565b34101561094e5760405162461bcd60e51b81526004016108009061367e565b611007338383611b97565b5050565b6006546001600160a01b031633146110355760405162461bcd60e51b815260040161080090613065565b6022805460ff19811660ff90911615179055565b6110533383611671565b61106f5760405162461bcd60e51b815260040161080090612f88565b61107b84848484611c3a565b50505050565b6000818152600260205260409020546060906001600160a01b03166110a557600080fd5b6000828152600c6020908152604091829020825161016081018452905461ffff8082168352620100008204811693830193909352640100000000810483169382019390935260ff66010000000000008404811615156060830152670100000000000000840483166080830152690100000000000000000084048116151560a0830152600160501b8404831660c0830152600160601b8404831660e0830152600160701b840481161515610100830152600160781b8404161515610120820152600160801b909204166101408201526111bf61117f84611c6d565b61119061118b8461126b565b611d6b565b61119984610a02565b6040516020016111ab9392919061369c565b604051602081830303815290604052611d6b565b6040516020016111cf91906137d0565b604051602081830303815290604052915050919050565b6006546001600160a01b031633146112105760405162461bcd60e51b815260040161080090613065565b600b805460ff19811660ff90911615179055565b6006546001600160a01b0316331461124e5760405162461bcd60e51b815260040161080090613065565b600b805461ff001981166101009182900460ff1615909102179055565b606061127682611ed1565b61127f836120ad565b6112888461227d565b61129185612316565b61129a866123b1565b6040516020016112ae959493929190613802565b60405160208183030381529060405290508160a00151156112f657806112d38361246a565b6040516020016112e4929190613849565b60405160208183030381529060405290505b81606001518015611311575081610140015161ffff16600214155b156113435780611320836124d5565b604051602001611331929190613849565b60405160208183030381529060405290505b816101000151801561135f575081610140015161ffff16600114155b15611390578061136d612540565b60405160200161137e929190613849565b60405160208183030381529060405290505b80604051602001610c6e9190613861565b6006546001600160a01b031633146113cb5760405162461bcd60e51b815260040161080090613065565b600a55565b6006546001600160a01b031633146113fa5760405162461bcd60e51b815260040161080090613065565b6009546114056108ab565b106114225760405162461bcd60e51b815260040161080090613989565b61142a6108ab565b600955565b60405163c455279160e01b81526000907f0000000000000000000000000000000000000000000000000000000000000000906001600160a01b03808516919083169063c4552791906114859088906004016128be565b60206040518083038186803b15801561149d57600080fd5b505afa1580156114b1573d6000803e3d6000fd5b505050506040513d601f19601f820116820180604052508101906114d591906139b8565b6001600160a01b031614156114f157505060225460ff16610734565b6001600160a01b03831660009081526023602052604090205460ff161561151c576001915050610734565b6001600160a01b0380851660009081526005602090815260408083209387168352929052205460ff165b949350505050565b6006546001600160a01b031633146115785760405162461bcd60e51b815260040161080090613065565b6001600160a01b03166000908152602360205260409020805460ff19811660ff90911615179055565b6006546001600160a01b031633146115cb5760405162461bcd60e51b815260040161080090613065565b6001600160a01b0381166115f15760405162461bcd60e51b815260040161080090613a1c565b61095781611b45565b80546001019055565b600081815260046020526040902080546001600160a01b0319166001600160a01b038416908117909155819061163882610e9a565b6001600160a01b03167f8c5be1e5ebec7d5bd14f71427d1e84f3dd0314c0f7b2291e5b200ac8c7c3b92560405160405180910390a45050565b6000818152600260205260408120546001600160a01b03166116a55760405162461bcd60e51b815260040161080090613a75565b60006116b083610e9a565b9050806001600160a01b0316846001600160a01b031614806116eb5750836001600160a01b03166116e0846107cc565b6001600160a01b0316145b806115465750611546818561142f565b826001600160a01b031661170e82610e9a565b6001600160a01b0316146117345760405162461bcd60e51b815260040161080090613ac7565b6001600160a01b03821661175a5760405162461bcd60e51b815260040161080090613b18565b611765600082611603565b6001600160a01b038316600090815260036020526040812080546001929061178e908490612f23565b90915550506001600160a01b03821660009081526003602052604081208054600192906117bc908490612fdf565b909155505060008181526002602052604080822080546001600160a01b0319166001600160a01b0386811691821790925591518493918716917fddf252ad1be2c89b69c2b068fc378daa952ba7f163c4a11628f55a4df523b3ef91a4505050565b6000811161183d5760405162461bcd60e51b815260040161080090613b5a565b600b811061185d5760405162461bcd60e51b815260040161080090613b96565b600954816118696108ab565b6118739190612fdf565b11156118915760405162461bcd60e51b815260040161080090613bd0565b60005b818110156110075760006118a760075490565b90506118b281610c84565b600c600083815260200190815260200160002060008201518160000160006101000a81548161ffff021916908361ffff16021790555060208201518160000160026101000a81548161ffff021916908361ffff16021790555060408201518160000160046101000a81548161ffff021916908361ffff16021790555060608201518160000160066101000a81548160ff02191690831515021790555060808201518160000160076101000a81548161ffff021916908361ffff16021790555060a08201518160000160096101000a81548160ff02191690831515021790555060c082015181600001600a6101000a81548161ffff021916908361ffff16021790555060e082015181600001600c6101000a81548161ffff021916908361ffff16021790555061010082015181600001600e6101000a81548160ff02191690831515021790555061012082015181600001600f6101000a81548160ff0219169083151502179055506101408201518160000160106101000a81548161ffff021916908361ffff160217905550905050611a4a3382612565565b611a58600780546001019055565b5080611a6381613be0565b915050611894565b600080805b601c8460ff1660068110611a8657611a86613075565b015460ff82161015611b3f576000601c8560ff1660068110611aaa57611aaa613075565b018260ff1681548110611abf57611abf613075565b90600052602060002090601091828204019190066002029054906101000a900461ffff1690508261ffff168661ffff1610158015611b0d5750611b028184613bf4565b61ffff168661ffff16105b15611b1f575060ff1691506107349050565b611b298184613bf4565b9250508080611b3790613c18565b915050611a70565b50600080fd5b600680546001600160a01b038381166001600160a01b0319831681179093556040519116919082907f8be0079c531659141344cd1fd0a4f28419497f9722a3daafe3b4186f6b6457e090600090a35050565b816001600160a01b0316836001600160a01b03161415611bc95760405162461bcd60e51b815260040161080090613c65565b6001600160a01b0383811660008181526005602090815260408083209487168084529490915290819020805460ff1916851515179055517f17307eab39ab6107e8899845ad3d59bd9653f200f220920489ca2b5937696c3190611c2d9085906127ee565b60405180910390a3505050565b611c458484846116fb565b611c518484848461257f565b61107b5760405162461bcd60e51b815260040161080090613cc4565b606081611c915750506040805180820190915260018152600360fc1b602082015290565b8160005b8115611cbb5780611ca581613be0565b9150611cb49050600a83613cd4565b9150611c95565b60008167ffffffffffffffff811115611cd657611cd6612981565b6040519080825280601f01601f191660200182016040528015611d00576020820181803683370190505b5090505b841561154657611d15600183612f23565b9150611d22600a866134ff565b611d2d906030612fdf565b60f81b818381518110611d4257611d42613075565b60200101906001600160f81b031916908160001a905350611d64600a86613cd4565b9450611d04565b805160609080611d8b575050604080516020810190915260008152919050565b60006003611d9a836002612fdf565b611da49190613cd4565b611daf906004613633565b90506000611dbe826020612fdf565b67ffffffffffffffff811115611dd657611dd6612981565b6040519080825280601f01601f191660200182016040528015611e00576020820181803683370190505b5090506000604051806060016040528060408152602001614631604091399050600181016020830160005b86811015611e8c576003818a01810151603f601282901c8116860151600c83901c8216870151600684901c831688015192909316870151600891821b60ff94851601821b92841692909201901b91160160e01b835260049092019101611e2b565b506003860660018114611ea65760028114611eb757611ec3565b613d3d60f01b600119830152611ec3565b603d60f81b6000198301525b505050918152949350505050565b6060600d826000015161ffff1681548110611eee57611eee613075565b9060005260206000209060020201600001601983610140015161ffff1681548110611f1b57611f1b613075565b9060005260206000209060060201600101601984610140015161ffff1681548110611f4857611f48613075565b9060005260206000209060060201600101601985610140015161ffff1681548110611f7557611f75613075565b9060005260206000209060060201600101601986610140015161ffff1681548110611fa257611fa2613075565b9060005260206000209060060201600101601987610140015161ffff1681548110611fcf57611fcf613075565b9060005260206000209060060201600101601988610140015161ffff1681548110611ffc57611ffc613075565b9060005260206000209060060201600101601989610140015161ffff168154811061202957612029613075565b906000526020600020906006020160020160198a610140015161ffff168154811061205657612056613075565b906000526020600020906006020160020160198b610140015161ffff168154811061208357612083613075565b9060005260206000209060060201600201604051602001610c6e9a99989796959493929190613f59565b6060600f826020015161ffff16815481106120ca576120ca613075565b9060005260206000209060020201600001600f836020015161ffff16815481106120f6576120f6613075565b9060005260206000209060020201600001600f846020015161ffff168154811061212257612122613075565b90600052602060002090600202016000016040516020016121459392919061418c565b6040516020818303038152906040529050816040015161ffff166000146122785760005b6011836040015161ffff166008811061218457612184613075565b015460ff821610156122765781600f846020015161ffff16815481106121ac576121ac613075565b90600052602060002090600202016000016011856040015161ffff16600881106121d8576121d8613075565b018360ff16815481106121ed576121ed613075565b90600052602060002090600202016000016011866040015161ffff166008811061221957612219613075565b018460ff168154811061222e5761222e613075565b9060005260206000209060020201600101604051602001612252949392919061421f565b6040516020818303038152906040529150808061226e90613c18565b915050612169565b505b919050565b6060601982610140015161ffff168154811061229b5761229b613075565b906000526020600020906006020160030160108360e0015161ffff16815481106122c7576122c7613075565b906000526020600020906002020160000160108460e0015161ffff16815481106122f3576122f3613075565b9060005260206000209060020201600101604051602001610c6e9392919061428e565b6060601982610140015161ffff168154811061233457612334613075565b9060005260206000209060060201600201601983610140015161ffff168154811061236157612361613075565b9060005260206000209060060201600401601984610140015161ffff168154811061238e5761238e613075565b9060005260206000209060060201600501604051602001610c6e93929190614315565b606060008261012001516123df57604051806040016040528060028152602001610c4d60f21b8152506123fb565b60405180604001604052806002815260200161189960f11b8152505b9050601983610140015161ffff168154811061241957612419613075565b9060005260206000209060060201600101601984610140015161ffff168154811061244657612446613075565b9060005260206000209060060201600101826040516020016111cf9392919061439a565b6060600e8260c0015161ffff168154811061248757612487613075565b9060005260206000209060020201600001600e8360c0015161ffff16815481106124b3576124b3613075565b9060005260206000209060020201600001604051602001610c6e929190614432565b6060600e826080015161ffff16815481106124f2576124f2613075565b9060005260206000209060020201600001600e836080015161ffff168154811061251e5761251e613075565b9060005260206000209060020201600001604051602001610c6e9291906144b0565b606060405160200161255190614539565b604051602081830303815290604052905090565b61100782826040518060200160405280600081525061268c565b60006001600160a01b0384163b1561268157604051630a85bd0160e11b81526001600160a01b0385169063150b7a02906125c3903390899088908890600401614544565b602060405180830381600087803b1580156125dd57600080fd5b505af192505050801561260d575060408051601f3d908101601f1916820190925261260a91810190614589565b60015b612667573d80801561263b576040519150601f19603f3d011682016040523d82523d6000602084013e612640565b606091505b50805161265f5760405162461bcd60e51b815260040161080090613cc4565b805181602001fd5b6001600160e01b031916630a85bd0160e11b149050611546565b506001949350505050565b61269683836126bf565b6126a3600084848461257f565b6108a65760405162461bcd60e51b815260040161080090613cc4565b6001600160a01b0382166126e55760405162461bcd60e51b8152600401610800906145dc565b6000818152600260205260409020546001600160a01b03161561271a5760405162461bcd60e51b815260040161080090614620565b6001600160a01b0382166000908152600360205260408120805460019290612743908490612fdf565b909155505060008181526002602052604080822080546001600160a01b0319166001600160a01b03861690811790915590518392907fddf252ad1be2c89b69c2b068fc378daa952ba7f163c4a11628f55a4df523b3ef908290a45050565b6001600160e01b031981165b811461095757600080fd5b8035610734816127a1565b6000602082840312156127d8576127d8600080fd5b600061154684846127b8565b8015155b82525050565b6020810161073482846127e4565b60005b838110156128175781810151838201526020016127ff565b8381111561107b5750506000910152565b6000612832825190565b8084526020840193506128498185602086016127fc565b601f01601f19169290920192915050565b6020808252810161286b8184612828565b9392505050565b806127ad565b803561073481612872565b60006020828403121561289857612898600080fd5b60006115468484612878565b60006001600160a01b038216610734565b6127e8816128a4565b6020810161073482846128b5565b6127ad816128a4565b8035610734816128cc565b600080604083850312156128f6576128f6600080fd5b600061290285856128d5565b925050602061291385828601612878565b9150509250929050565b806127e8565b60208101610734828461291d565b60008060006060848603121561294957612949600080fd5b600061295586866128d5565b9350506020612966868287016128d5565b925050604061297786828701612878565b9150509250925092565b634e487b7160e01b600052604160045260246000fd5b601f19601f830116810181811067ffffffffffffffff821117156129bd576129bd612981565b6040525050565b60006129cf60405190565b90506122788282612997565b61ffff81166127ad565b8035610734816129db565b8015156127ad565b8035610734816129f0565b60006101608284031215612a1957612a19600080fd5b612a246101606129c4565b90506000612a3284846129e5565b8252506020612a43848483016129e5565b6020830152506040612a57848285016129e5565b6040830152506060612a6b848285016129f8565b6060830152506080612a7f848285016129e5565b60808301525060a0612a93848285016129f8565b60a08301525060c0612aa7848285016129e5565b60c08301525060e0612abb848285016129e5565b60e083015250610100612ad0848285016129f8565b61010083015250610120612ae6848285016129f8565b61012083015250610140612afc848285016129e5565b6101408301525092915050565b60006101608284031215612b1f57612b1f600080fd5b60006115468484612a03565b61ffff81166127e8565b8051610160830190612b478482612b2b565b506020820151612b5a6020850182612b2b565b506040820151612b6d6040850182612b2b565b506060820151612b8060608501826127e4565b506080820151612b936080850182612b2b565b5060a0820151612ba660a08501826127e4565b5060c0820151612bb960c0850182612b2b565b5060e0820151612bcc60e0850182612b2b565b50610100820151612be16101008501826127e4565b50610120820151612bf66101208501826127e4565b5061014082015161107b610140850182612b2b565b61016081016107348284612b35565b600060208284031215612c2f57612c2f600080fd5b600061154684846128d5565b60008060408385031215612c5157612c51600080fd5b6000612c5d85856128d5565b9250506020612913858286016129f8565b600067ffffffffffffffff821115612c8857612c88612981565b601f19601f83011660200192915050565b82818337506000910152565b6000612cb8612cb384612c6e565b6129c4565b905082815260208101848484011115612cd357612cd3600080fd5b612cde848285612c99565b509392505050565b600082601f830112612cfa57612cfa600080fd5b8135611546848260208601612ca5565b60008060008060808587031215612d2357612d23600080fd5b6000612d2f87876128d5565b9450506020612d40878288016128d5565b9350506040612d5187828801612878565b925050606085013567ffffffffffffffff811115612d7157612d71600080fd5b612d7d87828801612ce6565b91505092959194509250565b60008060408385031215612d9f57612d9f600080fd5b6000612dab85856128d5565b9250506020612913858286016128d5565b634e487b7160e01b600052602260045260246000fd5b600281046001821680612de657607f821691505b6020821081141561227657612276612dbc565b602c81526000602082017f4552433732313a20617070726f76656420717565727920666f72206e6f6e657881526b34b9ba32b73a103a37b5b2b760a11b602082015291505b5060400190565b6020808252810161073481612df9565b602181526000602082017f4552433732313a20617070726f76616c20746f2063757272656e74206f776e658152603960f91b60208201529150612e3e565b6020808252810161073481612e55565b603881526000602082017f4552433732313a20617070726f76652063616c6c6572206973206e6f74206f7781527f6e6572206e6f7220617070726f76656420666f7220616c6c000000000000000060208201529150612e3e565b6020808252810161073481612ea3565b634e487b7160e01b600052601160045260246000fd5b600082821015612f3557612f35612f0d565b500390565b603181526000602082017f4552433732313a207472616e736665722063616c6c6572206973206e6f74206f8152701ddb995c881b9bdc88185c1c1c9bdd9959607a1b60208201529150612e3e565b6020808252810161073481612f3a565b601881526000602082017f436c61696d696e67206e6f7420616374697665207965742e0000000000000000815291505b5060200190565b6020808252810161073481612f98565b60008219821115612ff257612ff2612f0d565b500190565b601581526000602082017422bc31b2b2b2399031b630b4b69039bab838363c9760591b81529150612fc8565b6020808252810161073481612ff7565b60208082527f4f776e61626c653a2063616c6c6572206973206e6f7420746865206f776e657291019081526000612fc8565b6020808252810161073481613033565b634e487b7160e01b600052603260045260246000fd5b6000613095825190565b6130a38185602086016127fc565b9290920192915050565b7f7b2274726169745f74797065223a224261636b67726f756e64222c202276616c8152643ab2911d1160d91b602082015260005b5060250190565b600081546130f581612dd2565b60018216801561310c576001811461311d5761314d565b60ff1983168652818601935061314d565b60008581526020902060005b8381101561314557815488820152600190910190602001613129565b838801955050505b50505092915050565b7f7b2274726169745f74797065223a2254797065222c202276616c7565223a2200815260005b50601f0190565b7f7b2274726169745f74797065223a2257696e6773222c202276616c7565223a2281526000612fc8565b7f7b2274726169745f74797065223a2257696e6720436f6c6f72222c202276616c8152643ab2911d1160d91b602082015260006130e1565b7f7b2274726169745f74797065223a2245796573222c202276616c7565223a22008152600061317c565b600061321b828961308b565b9150613226826130ad565b915061323282886130e8565b62089f4b60ea1b8152600301915061324982613156565b915061325582876130e8565b62089f4b60ea1b8152600301915061326c82613183565b915061327882866130e8565b62089f4b60ea1b8152600301915061328f826131ad565b915061329b82856130e8565b62089f4b60ea1b815260030191506132b2826131e5565b91506132be82846130e8565b61227d60f01b815260020198975050505050505050565b60006132e1828561308b565b7f2c7b2274726169745f74797065223a22426f6f7473222c202276616c7565223a8152601160f91b60208201529150602182015b915061332182846130e8565b61227d60f01b8152915060028201611546565b6000613340828561308b565b7f2c7b2274726169745f74797065223a2242616e64616e61222c202276616c7565815262111d1160e91b6020820152915060238201613315565b6000613386828461308b565b7f2c7b2274726169745f74797065223a22546f6e677565222c202276616c7565228152673a2254727565227d60c01b602082015291506028820161286b565b60006133d1828461308b565b7f2c7b2274726169745f74797065223a225461696c222c202276616c7565223a228152635570227d60e01b602082015291506024820161286b565b7f2c7b2274726169745f74797065223a225461696c222c202276616c7565223a22815265446f776e227d60d01b602082015260005b5060260190565b6000613454828461308b565b915061286b8261340c565b605b60f81b815260005b5060010190565b605d60f81b81526000613469565b60006134898261345f565b9150613495828461308b565b915061286b82613470565b60006134ac828561291d565b6020820191506134bc828461291d565b5060200192915050565b634e487b7160e01b600052601260045260246000fd5b600061ffff8216915061ffff83165b9250826134fa576134fa6134c6565b500690565b6000826134eb565b602981526000602082017f4552433732313a206f776e657220717565727920666f72206e6f6e657869737481526832b73a103a37b5b2b760b91b60208201529150612e3e565b6020808252810161073481613507565b602a81526000602082017f4552433732313a2062616c616e636520717565727920666f7220746865207a65815269726f206164647265737360b01b60208201529150612e3e565b602080825281016107348161355d565b601a81526000602082017f576f756c6420696e637265617365206d617820737570706c792e00000000000081529150612fc8565b60208082528101610734816135b4565b601481526000602082017326b4b73a103737ba1030b1ba34bb32903cb2ba1760611b81529150612fc8565b60208082528101610734816135f8565b600081600019048311821515161561364d5761364d612f0d565b500290565b60158152600060208201742bb937b7339022aa24103b30b63ab29039b2b73a1760591b81529150612fc8565b6020808252810161073481613652565b607d60f81b81526000613469565b7f7b226e616d65223a202254696e792057696e67656420547572746c65202300008152601e0160006136ce828661308b565b7f222c20226465736372697074696f6e223a202254696e792057696e676564205481527f7572746c657a20617265206120636f6c6c656374696f6e206f662066756c6c7960208201527f206f6e2d636861696e2c2072616e646f6d6c792067656e6572617465642c207360408201527f6d616c6c20747572746c657320776974682077696e67732e222c2022696d616760608201527f65223a2022646174613a696d6167652f7376672b786d6c3b6261736536342c006080820152609f019150613798828561308b565b6e11161130ba3a3934b13aba32b9911d60891b8152600f0191506137bc828461308b565b91506137c78261368e565b95945050505050565b7f646174613a6170706c69636174696f6e2f6a736f6e3b6261736536342c0000008152601d01600061286b828461308b565b600061380e828861308b565b915061381a828761308b565b9150613826828661308b565b9150613832828561308b565b915061383e828461308b565b979650505050505050565b6000613855828561308b565b9150611546828461308b565b7f3c7376672069643d2774696e792d77696e6765642d747572746c652720786d6c81527f6e733d27687474703a2f2f7777772e77332e6f72672f323030302f737667272060208201527f7072657365727665417370656374526174696f3d27784d696e594d696e206d6560408201527f6574272076696577426f783d27302030203234203234273e000000000000000060608201526078016000613905828461308b565b7f3c7374796c653e2374696e792d77696e6765642d747572746c657b736861706581527f2d72656e646572696e673a637269737065646765733b7d3c2f7374796c653e3c60208201526417b9bb339f60d91b604082015291506045820161286b565b600b81526000602082016a20b6361036b4b73a32b21760a91b81529150612fc8565b6020808252810161073481613967565b6000610734826128a4565b6127ad81613999565b8051610734816139a4565b6000602082840312156139cd576139cd600080fd5b600061154684846139ad565b602681526000602082017f4f776e61626c653a206e6577206f776e657220697320746865207a65726f206181526564647265737360d01b60208201529150612e3e565b60208082528101610734816139d9565b602c81526000602082017f4552433732313a206f70657261746f7220717565727920666f72206e6f6e657881526b34b9ba32b73a103a37b5b2b760a11b60208201529150612e3e565b6020808252810161073481613a2c565b602581526000602082017f4552433732313a207472616e736665722066726f6d20696e636f72726563742081526437bbb732b960d91b60208201529150612e3e565b6020808252810161073481613a85565b602481526000602082017f4552433732313a207472616e7366657220746f20746865207a65726f206164648152637265737360e01b60208201529150612e3e565b6020808252810161073481613ad7565b60208082527f5175616e74697479206d7573742062652067726561746572207468616e20302e91019081526000612fc8565b6020808252810161073481613b28565b601581526000602082017422bc31b2b2b2399036b0bc103832b91036b4b73a1760591b81529150612fc8565b6020808252810161073481613b6a565b601381526000602082017222bc31b2b2b2399036b0bc1039bab838363c9760691b81529150612fc8565b6020808252810161073481613ba6565b600060001982141561346957613469612f0d565b600061ffff8216915061ffff831692508261ffff03821115612ff257612ff2612f0d565b600060ff8216915060ff82141561346957613469612f0d565b601981526000602082017f4552433732313a20617070726f766520746f2063616c6c65720000000000000081529150612fc8565b6020808252810161073481613c31565b603281526000602082017f4552433732313a207472616e7366657220746f206e6f6e20455243373231526581527131b2b4bb32b91034b6b83632b6b2b73a32b960711b60208201529150612e3e565b6020808252810161073481613c75565b600082613ce357613ce36134c6565b500490565b6b3c726563742066696c6c3d2760a01b8152600c0190565b7f27206865696768743d2731272077696474683d27332720783d2731352720793d815265139c9390179f60d11b60208201526000613441565b7f27206865696768743d2733272077696474683d27342720783d2731352720793d8152661398981390179f60c91b602082015260005b5060270190565b7f27206865696768743d2731272077696474683d27332720783d2731352720793d8152661398999390179f60c91b60208201526000613d6f565b7f27206865696768743d2731272077696474683d27382720783d27372720793d27815265189a1390179f60d11b60208201526000613441565b7f27206865696768743d2731272077696474683d27322720783d27372720793d27815265189a9390179f60d11b60208201526000613441565b7f27206865696768743d2731272077696474683d27322720783d2731332720793d81526613989a9390179f60c91b60208201526000613d6f565b7f27206865696768743d2731272077696474683d27342720783d27392720793d278152641c9390179f60d91b602082015260006130e1565b7f27206865696768743d2731272077696474683d27362720783d27382720793d2781526518981390179f60d11b60208201526000613441565b7f27206865696768743d2733272077696474683d27382720783d27372720793d2781526518989390179f60d11b60208201526000613441565b7f3c726563742066696c6c3d272366666666666627206865696768743d2732272081527f77696474683d27322720783d2731362720793d27313027202f3e000000000000602082015260005b50603a0190565b6000613f6482613ce8565b9150613f70828d6130e8565b7f27206865696768743d273234272077696474683d27323427202f3e00000000008152601b019150613fa182613ce8565b9150613fad828c6130e8565b9150613fb882613d00565b9150613fc382613ce8565b9150613fcf828b6130e8565b9150613fda82613d39565b9150613fe582613ce8565b9150613ff1828a6130e8565b9150613ffc82613d76565b915061400782613ce8565b915061401382896130e8565b915061401e82613db0565b915061402982613ce8565b915061403582886130e8565b915061404082613de9565b915061404b82613ce8565b915061405782876130e8565b915061406282613e22565b915061406d82613ce8565b915061407982866130e8565b915061408482613e5c565b915061408f82613ce8565b915061409b82856130e8565b91506140a682613e94565b91506140b182613ce8565b91506140bd82846130e8565b91506140c882613ecd565b91506140d382613f06565b9c9b505050505050505050505050565b7f27206865696768743d2731272077696474683d27362720783d27352720793d278152641c1390179f60d91b602082015260006130e1565b7f27206865696768743d2731272077696474683d27342720783d27372720793d278152641c9390179f60d91b602082015260006130e1565b7f27206865696768743d2731272077696474683d27322720783d27392720793d2781526518981390179f60d11b60208201526000613441565b600061419782613ce8565b91506141a382866130e8565b91506141ae826140e3565b91506141b982613ce8565b91506141c582856130e8565b91506141d08261411b565b91506141db82613ce8565b91506141e782846130e8565b91506137c782614153565b7f27206865696768743d2731272077696474683d27312720783d27000000000000815260005b50601a0190565b600061422b828761308b565b915061423682613ce8565b915061424282866130e8565b915061424d826141f2565b915061425982856130e8565b642720793d2760d81b8152600501915061427382846130e8565b631390179f60e11b81529150600482015b9695505050505050565b600061429982613ce8565b91506142a582866130e8565b91506142b0826141f2565b91506142bc82856130e8565b642720793d2760d81b815260050191506142d682846130e8565b631390179f60e11b81529150600482016137c7565b7f27206865696768743d2732272077696474683d27312720783d2700000000000081526000614218565b600061432082613ce8565b915061432c82866130e8565b91506142b0826142eb565b7f27206865696768743d2731272077696474683d27312720783d27362720793d2781526518999390179f60d11b60208201526000613441565b7f27206865696768743d2731272077696474683d27312720783d27352720793d2781526000612fc8565b60006143a582613ce8565b91506143b182866130e8565b91506143bc82614337565b91506143c782613ce8565b91506143d382856130e8565b91506143de82614370565b91506142d6828461308b565b7f27206865696768743d2731272077696474683d27322720783d27372720793d27815271313527202f3e3c726563742066696c6c3d2760701b602082015260005b5060320190565b600061443d82613ce8565b915061444982856130e8565b9150614454826143ea565b915061446082846130e8565b915061154682613e22565b7f27206865696768743d2731272077696474683d27312720783d2731342720793d815271273827202f3e3c726563742066696c6c3d2760701b6020820152600061442b565b60006144bb82613ce8565b91506144c782856130e8565b91506144d28261446b565b91506144de82846130e8565b915061154682613d00565b7f3c726563742066696c6c3d272365643230323427206865696768743d2731272081527f77696474683d27312720783d2731382720793d27313327202f3e00000000000060208201526000613f52565b6000610734826144e9565b6080810161455282876128b5565b61455f60208301866128b5565b61456c604083018561291d565b81810360608301526142848184612828565b8051610734816127a1565b60006020828403121561459e5761459e600080fd5b6000611546848461457e565b60208082527f4552433732313a206d696e7420746f20746865207a65726f206164647265737391019081526000612fc8565b60208082528101610734816145aa565b601c81526000602082017f4552433732313a20746f6b656e20616c7265616479206d696e7465640000000081529150612fc8565b60208082528101610734816145ec56fe4142434445464748494a4b4c4d4e4f505152535455565758595a6162636465666768696a6b6c6d6e6f707172737475767778797a303132333435363738392b2fa2646970667358221220c8048a2f11a67f759faac20b330f494bd458ba7ff966b5dff7164f1fbafb550d64736f6c63430008090033",
  "linkReferences": {},
  "deployedLinkReferences": {}
}